:020000040800F2
:100000000020002051180008CD150008D115000867
:1000100000000000000000000000000000000000E0
:10002000000000000000000000000000D5150008DE
:100030000000000000000000D9150008DD150008D0
:10004000A1180008A1180008A1180008A1180008AC
:10005000A1180008A1180008A1180008ED15000853
:1000600000000000E5170008F5170008F917000860
:10007000A1180008A1180008A1180008A11800087C
:10008000A1180008A1180008A1180008A11800086C
:1000900000000000A1180008A1180008A11800081D
:1000A000A1180008A1180008A1180008A11800084C
:0C00B000A1180008A118000800000000C2
:1000BC0010B5064C2378002B07D1054B002B02D032
:1000CC00044800E000BF0123237010BDF4000020A1
:1000DC000000000080660008044B10B5002B03D014
:1000EC000349044800E000BF10BDC04600000000FA
:1000FC00F8000020806600080023C25C0133002A4F
:10010C00FBD1581E70470000002243088B4274D369
:10011C0003098B425FD3030A8B4244D3030B8B42FC
:10012C0028D3030C8B420DD3FF22090212BA030C05
:10013C008B4202D31212090265D0030B8B4219D3E6
:10014C0000E0090AC30B8B4201D3CB03C01A524106
:10015C00830B8B4201D38B03C01A5241430B8B424E
:10016C0001D34B03C01A5241030B8B4201D30B0337
:10017C00C01A5241C30A8B4201D3CB02C01A52415E
:10018C00830A8B4201D38B02C01A5241430A8B4221
:10019C0001D34B02C01A5241030A8B4201D30B020A
:1001AC00C01A5241CDD2C3098B4201D3CB01C01A24
:1001BC00524183098B4201D38B01C01A524143092E
:1001CC008B4201D34B01C01A524103098B4201D31C
:1001DC000B01C01A5241C3088B4201D3CB00C01A89
:1001EC00524183088B4201D38B00C01A5241430801
:1001FC008B4201D34B00C01A5241411A00D2014626
:10020C00524110467047FFE701B5002000F0F0F8AE
:10021C0002BDC0460029F7D076E7704703460B4372
:10022C007FD4002243088B4274D303098B425FD3E3
:10023C00030A8B4244D3030B8B4228D3030C8B420F
:10024C000DD3FF22090212BA030C8B4202D31212F5
:10025C00090265D0030B8B4219D300E0090AC30BCA
:10026C008B4201D3CB03C01A5241830B8B4201D377
:10027C008B03C01A5241430B8B4201D34B03C01A60
:10028C005241030B8B4201D30B03C01A5241C30AD8
:10029C008B4201D3CB02C01A5241830A8B4201D349
:1002AC008B02C01A5241430A8B4201D34B02C01A33
:1002BC005241030A8B4201D30B02C01A5241CDD2D8
:1002CC00C3098B4201D3CB01C01A524183098B4223
:1002DC0001D38B01C01A524143098B4201D34B010C
:1002EC00C01A524103098B4201D30B01C01A52416F
:1002FC00C3088B4201D3CB00C01A524183088B42F6
:10030C0001D38B00C01A524143088B4201D34B00DE
:10031C00C01A5241411A00D2014652411046704750
:10032C005DE0CA0F00D04942031000D34042534055
:10033C0000229C4603098B422DD3030A8B4212D315
:10034C00FC22890112BA030A8B420CD38901921147
:10035C008B4208D3890192118B4204D389013AD084
:10036C00921100E08909C3098B4201D3CB01C01A59
:10037C00524183098B4201D38B01C01A524143096C
:10038C008B4201D34B01C01A524103098B4201D35A
:10039C000B01C01A5241C3088B4201D3CB00C01AC7
:1003AC00524183088B4201D38B00C01A5241D9D2DF
:1003BC0043088B4201D34B00C01A5241411A00D260
:1003CC000146634652415B10104601D34042002B5C
:1003DC0000D54942704763465B1000D3404201B5DB
:1003EC00002000F005F802BD0029F8D016E7704790
:1003FC007047C046F0B557464E464546DE469946D0
:10040C00E0B568230600102097B002AF1B18DB196B
:10041C008A461C880821002309187B6114339046F6
:10042C00F86F3622FB18C91903F06AFE002802D1B6
:10043C007B69362B08D00120BD4615B0F0BCBB46FD
:10044C00B246A946A046F0BD8022BA1812681360C5
:10045C00614B3A8B9A4200D0B7E03B8DFA8C1B046F
:10046C001343282B00D0AEE0BB8E182B00D0AEE08F
:10047C003B8FFA8E1B041343BB6000D0A9E03B8E6C
:10048C00FA8D1B041343DA179B1853409C4200DD72
:10049C009CB2BA8D7B8D12041A43914501DD93B247
:1004AC00994653009B1803221A4208D0D917890F7A
:1004BC0058180240891A0A1D9446BA6063446A4669
:1004CC000733DB08DB00D31A9D46B98C02AB1D0049
:1004DC007B8C09041943FB6F36395B69F86FC918BB
:1004EC0003F0F8FE0028A6D18021BB8C7A8C1B046B
:1004FC0013437A181268363B1268D3187A181268AC
:10050C0013603B8EFA8D1B04134301227A60002B7F
:10051C0006DD4346013B1B199BB298462F4B7B6073
:10052C00631E9BB2002C00D186E7AB46FB603860A3
:10053C00BB8D7A8D1B041343BC685A00D218A44699
:10054C0014235946F86F6244FB1803F0D9FD0028B8
:10055C0000D070E7A446BB8D7A8D1B0413435A0060
:10056C00D3187A696344934200D064E780217A18E7
:10057C0012685C4612680025D3187A18126813604A
:10058C004B46002B12D053465919424689B23000C3
:10059C0005F050FD010020786378A27801350090B9
:1005AC00300005F021FD03344D45ECDB7B680B4A34
:1005BC0043449BB29846FB68013B9BB2FB60934261
:1005CC00B6D1386838E7032036E7022034E7042038
:1005DC0032E7052030E7C046424D0000FFFF000027
:1005EC00F0B5DE4657464E464546E0B599B0059304
:1005FC0022AB1B880F00069323AB1B8891469A46AF
:10060C0024AB1B8880469B46FFF776FD0400380020
:10061C00FFF772FD06002018023005F05BFE220089
:10062C004146050005F0CAFF2F232B550134390034
:10063C002819721C05F0C2FF0122290010A803F032
:10064C000DFD0400280005F04FFE002C06D019B05B
:10065C00F0BCBB46B246A946A046F0BD9421012091
:10066C0005F000FE10A9040000F0E4F800280ED1FB
:10067C002378002B06D15C33A26DE35C120A1B06B7
:10068C0013430BD0606C002801D005F02DFE200028
:10069C0005F02AFE10A803F003FED8E78C2310A85F
:1006AC00E15803F017FEFA21A368207B1B0A000611
:1006BC0018438900FFF728FD0790606C002801D0D3
:1006CC0005F012FE200005F00FFE0023159A08938A
:1006DC00139B9A423CD2012398464F4D4F4F082210
:1006EC0008AB0AA910A82E6803F00AFD041E2FD12E
:1006FC00089B082B2CD10A9BBB4252D042460B9B29
:10070C001A4201D001330B930022099204AA528B96
:10071C0043498A422AD0434900208A4226D0984233
:10072C0007D015995918091A10A803F0D3FD002801
:10073C000ED105F027FA00284BD12868079A831BA5
:10074C009A4201D9002C61D1159A139B9A42C6D3B7
:10075C0010A803F0A5FD484605F00AFB4846002109
:10076C0005F052FC484605F0C1FA70E7002BEBD0BF
:10077C00484605F0FDFA09AB029310AB01935B46BA
:10078C0048460093069A53460599FFF733FE04003A
:10079C00484605F0ABFA002CDAD10B9B09980134D2
:1007AC00BDE7102208AB0CA910A803F0A9FC002887
:1007BC00CED1089B102BCBD11B4B0C9A9A42C7D194
:1007CC001A4B0D9A9A42C3D1194B0F9A9A42BFD128
:1007DC00BAE705F0B9F94307BAD4012303408007FF
:1007EC000AD54A46927CFF2A03D049460132D2B23E
:1007FC008A74002BA1D005E0002B9ED04B469A7C2E
:10080C00002A9AD04B46013A9A7496E79446301ACD
:10081C00604402F0D1FA97E7700300205249464633
:10082C006463000044430000415649584C495354FA
:10083C006D6F7669F0B5DE464E46454657460C0060
:10084C000023E0B585B0009306006B460C22200017
:10085C0001A903F055FC051E08D1009B0C2B05D1FA
:10086C007D4B019A9A420AD0012500E0022528000E
:10087C0005B0F0BCBB46B246A946A046F0BD774BCE
:10088C00039A9A42F0D14823F054E26863699A4281
:10089C00EDD988239946043B9846714F18E0714A6C
:1008AC0093420AD1039B704A934200D19AE06F4A5B
:1008BC00934234D06E4A934225D00299043963692D
:1008CC002000C91803F006FD6269E3689A42CED293
:1008DC006B460C22200001A903F012FC0028C5D1A4
:1008EC00009B0C2BC2D1019BBB42D8D14B4640463E
:1008FC000299F150636904391A1F3250C91820004B
:10090C0003F0E8FCE0E790238C2202992000F150E0
:10091C0063690439B350C91803F0DCFCD4E7029BBB
:10092C009A4648239B465A46F35C0133DBB2D90006
:10093C00B354C91AC900706C05F092FD6B46706413
:10094C000822200001A903F0DBFB002800D08DE772
:10095C00009B082B00D089E7464B019A9A4200D0A5
:10096C0082E75B46F25C716CD3009B1ADB00383B70
:10097C00C91838226B46200003F0C2FB002800D0B7
:10098C0074E7009B382B00D070E76B4608222000E0
:10099C0001A903F0B5FB002800D067E7009B082BEA
:1009AC0000D063E7344B019A9A4200D05CE74823AD
:1009BC00F15C736CCA00521AD2009B18383B597800
:1009CC001A78090211439A78DB7812040A431B0641
:1009DC0013432A4A93421DD0294A93422BD05146A5
:1009EC004C396CE76B4640222000711C03F088FBED
:1009FC00002800D03AE7009B402B00D036E7326845
:100A0C003379120A1B0613431E4A934200D15BE74B
:100A1C0001252CE731006B4628222000493103F0D8
:100A2C006FFB002800D021E7009B282B00D01DE78E
:100A3C005146743943E731006B4610222000713166
:100A4C0003F05EFB002800D010E7009B102B00D0B9
:100A5C000CE751465C3932E752494646415649202B
:100A6C00696478314C4953546864726C7374726C59
:100A7C006D6F766973747268737472667669647379
:100A8C0061756473617669680721234A10B5136830
:100A9C008B4305390B431360053113680B40022B54
:100AAC00FBD11E4AFE3311680B4380211360C90031
:100ABC0013680B42FCD0D168194B1940194B0B43EE
:100ACC00D360802311685B040B4313608023D168CF
:100ADC005B050B438021D360104A890413680B42D9
:100AEC00FCD0936810490B400721936093688B43AB
:100AFC0005390B439360094A363193680B40102B30
:100B0C00FBD1936809490A480B40936002F044F901
:100B1C00074802F067F910BD0020024000100240A7
:100B2C008C80FF1F02080020FFF0FFFFFF8FFFFFEC
:100B3C000090D0038022F0B5DE46454657464E461F
:100B4C00FD4B52001968E0B50A431A6080221968FF
:100B5C0092000A431A600122F84BC025196CD7B0D9
:100B6C0011431964196CF64C0A4080211392139AA4
:100B7C00DA6B49050A43DA63DB6B2D060B401293E3
:100B8C00129B236A1B021B0A2B432362FFF77CFF79
:100B9C00FA21EC4B89001868FFF7B6FA802301386C
:100BAC005B0498420AD2E84A5060236A1B021B0A73
:100BBC001D43002325629360073313600024022732
:100BCC001822002139A8309405F0A4FC042201213C
:100BDC00DA4E8846736BDD483B437363736B2FAD02
:100BEC003B401E931E9B736B802713437363736B85
:100BFC00BF0413401F931F9B736B80220B437363C3
:100C0C00736B52010B402093A021209B0823C90534
:100C1C008B6108338B6110338B618B468A61402169
:100C2C00CB4B81619A6ECB4928000A408021490048
:100C3C000A439A66DA6EC8490A403A43DA665A6E33
:100C4C0047460A40802189005A662F9103222F7152
:100C5C008027AA713F0201F073FD2F9703224746AC
:100C6C00AA71AF80280001F06BFD802103222F9127
:100C7C002800AF80AA7101F063FD8023B348B74907
:100C8C00C268DB020A401343B54AC360D36817003D
:100C9C0080229B00D2059B081343FB605F46FB68D8
:100CAC008027B04AFF0113403B435F46FB6003685B
:100CBC000B400360AA4803689B009B0803603B68D9
:100CCC00082013403B604746399039A801003A97F9
:100CDC00584601373B973C943D9401F08FFD102012
:100CEC004346399039A958463A933D933B973C94E7
:100CFC0001F084FD2023399343463A933D9339AB5D
:100D0C00190058463B973C9401F078FD80235B0119
:100D1C00399343463A933D9339AB190058463B946B
:100D2C003C9401F06BFD434640213A933D9339AB23
:100D3C003991864819003B973C9401F05FFDC12125
:100D4C00894B89005A581202120A5A508021196094
:100D5C004146B26B85480A43B263B26B0A401D929E
:100D6C001D9AC22292009958014080200002014332
:100D7C0099508020800018607D4998580840802147
:100D8C00C903014399508021C9001960995809027F
:100D9C00090A995080200001186039AB18002822EC
:100DAC00002105F0B7FB0C22002132A805F0B2FBA4
:100DBC008022336C4146520113433364336C5846E2
:100DCC00134003221B931B9B736B0B437363736B5B
:100DDC002F970B401C936F60AA60296129001C9B04
:100DEC0001F00CFD042303222F93434629006F606E
:100DFC00AA602B615846EC606C6101F0FFFC3F214E
:100E0C005C4A5D4813688B432E390B4313605B4B74
:100E1C002F311A680240102002431A601A68584891
:100E2C00024020201A601A6882431A601A68E03067
:100E3C008A431A601A6840318A430A431A601A6856
:100E4C0050490A4002431A601A684F4802408020F9
:100E5C00C00002431A6082235B003A93F0233C9754
:100E6C00FF37FF373E97FA3FFF3F429739AF3900C4
:100E7C001B0146483B9339943D943F9440944194D4
:100E8C0001F042FD1020414F00217B683A00834362
:100E9C007B607B68082702A83B43844653609223FF
:100EAC0063441222180005F035FB39AB18002022E0
:100EBC00002105F02FFB18220021280005F02AFB49
:100ECC000222F36B26AF1343F363F36B3900134029
:100EDC001993199B2E4B3B809F23BB602D4B99463E
:100EEC00180001F051FD4B4680214A461B68082032
:100EFC008B431360284B7F399A4652461B68034339
:100F0C0013604F22602348463C9239AA39933A9495
:100F1C003B943D9401F086FD5246042013688021D9
:100F2C00834313604B4670225B68584693434A4692
:100F3C005360936832E0C04600200240001002402B
:100F4C0000ED00E00000002010E000E00004005084
:100F5C0000180240FFF8FFFFFFFFFFF8FFFFF3FF51
:100F6C0000080050FF3FFFFF00E100E0FF00FFFF23
:100F7C00FFFF00FF00080240EFBFFFFF0800024028
:100F8C00FFCFFFFFFFFCFFFFFFF3FFFF003001402F
:100F9C00E703000000040040180400408B439360FA
:100FAC004246736B290013437363736B13401A939C
:100FBC001A9B40232F93434601326A606B61AC60ED
:100FCC00EC602C6101F01AFC39AB282200211800CE
:100FDC0005F0A0FA8022EC60F36BD2011343F363AB
:100FEC00F36B4046134002221693169B736B8021C1
:100FFC0013437363736B13401793179B736B034308
:10100C007363736B2F9103401893189B0323290070
:10101C006A60AB6028616861EF4801F0EFFB424603
:10102C002F92013203236A6042462900AB602A6189
:10103C005846EC606C6101F0E1FB042102222F9117
:10104C0003236A6042462900AB602A616A61E24868
:10105C00EC6001F0D3FB3F21E04A202013688B4366
:10106C002D390B431360DE4BDE491A680A401A60B7
:10107C001A68DD490A40802149010A431A601A683E
:10108C00DA4982431A601A68203082431A601A685F
:10109C004030824302431A601A680A401A601A6888
:1010AC00D3490A403F211A60D24A13688B432C392A
:1010BC000B431360D04BCB491A680A4010210A43EA
:1010CC001A601A68C8490A40802149010A43202144
:1010DC001A601A688A431A601A6820318A431A60A7
:1010EC001A68824302431A601A68C04802401A60A8
:1010FC001A68BF4802401A6082235B0039943A9305
:10110C00E023DB003B9380239B003E93FA3BFF3BA9
:10111C004293BA4B3C94994639AB190048463D94DE
:10112C003F944094419401F0EFFB4B4610214A460A
:10113C005B6828008B4353605368082213434A466C
:10114C00536021AB202200215C80994605F0E2F926
:10115C0039AB18003022002105F0DCF918220021EF
:10116C00380005F0D7F9736DA54A3F201340802253
:10117C0017217365336C120113433364336C1340C2
:10118C00A04A1493149B136883430B4313609E4B28
:10119C0094481A68073902400A431A60C022196839
:1011AC009148920101400A43202180201A601A685C
:1011BC008A430A431A601A6820318A431A601A68F3
:1011CC008A49824302431A601A680A408021490006
:1011DC000A431A601A6886490A408021C9000A43EA
:1011EC001A604B4649461C805C604F238B60874BD2
:1011FC00CC609A4618000C6101F0C6FB5346802067
:10120C001B688022834350460360814B12011900F6
:10121C001B6813430B60602380212F93393B2A00FA
:10122C00EB6049016C60AC602C61AC61EC6101F06D
:10123C00F9FB774B774A19001B68802013400B6031
:10124C00534670215B68744A8B4351464B604B6824
:10125C0013404B608B6883438B60E821002302A80A
:10126C00401839943A943B940370EA2002AB1B1853
:10127C001C8080239B013D9380239B04419339ABBD
:10128C00190050463E943F944094429443944494A5
:10129C0001F034FD4046736B022203437363736B9E
:1012AC00802603403601269639007A60BA60F860D1
:1012BC007A6115933C615846159B01F09FFA4B4699
:1012CC00564A119243CA43C3554E126880201A6085
:1012DC002696544E20217E604646534B400198463C
:1012EC001B68BE6038825E46109308200BAB944698
:1012FC00398419004B46FE607E613883FE6145CB14
:10130C0045C163460B6002230A93484B0997089327
:10131C00474BF0220793474B39A90693464B10983D
:10132C000593A0235B000193503B0093049403941A
:10133C00029400F039FC43460700186000F072FD7F
:10134C000021380000F0B2FE3C4E3D4A002138002E
:10135C003C4B01929046039400220294009601F0BB
:10136C007DF93B8A72783849D21892B23A823800A9
:10137C00364B0191039400210294009601F06EF912
:10138C00FA203A8A7378C0009B183B8201F014FD56
:10139C0001222F492F4802F02FFE002862D0FF2196
:1013AC0009043A8A38002C4B0191039421000294D1
:1013BC00009601F053F93B8A72782849D21892B200
:1013CC003A820291414638000191254B2100039449
:1013DC00009601F043F9FEE70004005004080240B7
:1013EC001C000240EFBFFFFFFFCFFFFFFFFCFFFF22
:1013FC00FFF3FFFF080802403000024000380040B5
:10140C00FFFFBFFF0C08024044000240002C0140CB
:10141C001C2C0140FFFBFFFFFFFF0FFF986600082D
:10142C0000300140000002407803002045270008EE
:10143C003D2700081D270008F126000804000020A5
:10144C0000FFFF00D0660008FFFF0000E866000800
:10145C006C0300204001002004670008B19B3100A0
:10146C00106700082A00119B103313CB13C213CB47
:10147C0013C213CB13C21B68136004F025FB0400CA
:10148C00836B39009847FA88BB880092E26B200086
:10149C00904600221100C04729002000236C984779
:1014AC0031002000636C98470323012200212000A7
:1014BC00A56CA84703223A4B3A4D1A7080231B02A5
:1014CC000293394B7D32019380239B0059462800AF
:1014DC000093364B01F08CFC0121280001F034FD07
:1014EC00334B032200939621802301925B015246D9
:1014FC00C900002004F0CCFBFF2203003C2100209B
:10150C0004F07AFC804600283DD004F0DFFC294B27
:10151C009A46002399464346B8461F0011E0A36D36
:10152C0020009847E36D0600200098473B8A010095
:10153C000293FB893A000193300000230095FFF7DA
:10154C004FF81D49404600F0B1FD2000236D98472F
:10155C002000636D9847051EE1D04A46E36803926C
:10156C00DA68002102925B680022019323694046ED
:10157C000093534601F072F804F004FB0028FBD0F2
:10158C0004F0E2FADDE7FF2109043A8A0B4B0390E1
:10159C000290019100960100380001F05FF8FEE71F
:1015AC00D50300201001002000080050000400505A
:1015BC000000024054670008B19B310034670008FA
:1015CC00FEE7C046FEE7C0467047C0467047C046BF
:1015DC00024A1368013313607047C0467003002041
:1015EC008022734B10B519690A421DD18022704BB1
:1015FC00D9680A424FD180226D4B92001969114271
:10160C003ED180226A4B9200D96811422DD18022A2
:10161C00674B1202196911421CD18022644B1202D1
:10162C00D96811420BD110BD012162481A6101F039
:10163C00F3FB2028DAD8604B80001B589F4603210F
:10164C005C48DA6001F0E8FB2028ECD85B4B8000AA
:10165C001B589F46032157481A6101F0DDFB2028D7
:10166C00DBD8574B80001B589F4602215148DA604B
:10167C0001F0D2FB2028CAD8524B80001B589F4641
:10168C0002214C481A6101F0C7FB2028B9D84E4BF7
:10169C0080001B589F4601214648DA6001F0BCFBD4
:1016AC002028A8D8494B80001B589F462020484A28
:1016BC001378132B9FD847495C0001336052137089
:1016CC0099E70820424A1378132B00D98EE7414939
:1016DC005C0001336052137088E70420F2E710209D
:1016EC00F0E72020EEE70820394A1378132B9AD81C
:1016FC0038495C0001336052137094E70420F3E71F
:10170C001020F1E72020EFE70820314A1378132B43
:10171C0000D982E72F495C000133605213707CE7DB
:10172C000420F2E71020F0E72020EEE70820284AFA
:10173C001378132B00D96AE726495C0001336052F9
:10174C00137064E70420F2E71020F0E72020EEE7A6
:10175C0008201F4A1378132B00D952E71D495C004F
:10176C000133605213704CE70420F2E71020F0E7CD
:10177C002020EEE708209AE7042098E7102096E74F
:10178C000120B1E70120C0E70120D0E70120E0E70C
:10179C0001208CE7012095E70220A5E70220D8E77D
:1017AC0002208FE70220C2E7022080E70220ACE78C
:1017BC00001802401001002068670008EC67000860
:1017CC0070680008F468000878690008FC69000873
:1017DC00D6030020D803002010B50121014800F0E9
:1017EC005BF810BD000002407047C04610B50321E5
:1017FC00014804F089FC10BD000002400C490D4A60
:10180C000300521A0C4910B50868002804D0C318FC
:10181C00934206D80B6010BD0848C3180860934269
:10182C00F8D904F09FFE0C23036001204042F2E73C
:10183C00000400000020002074030020500500204C
:10184C007047C0460D488546FFF7FAFF0C480D4916
:10185C000D4A002302E0D458C4500433C4188C42FF
:10186C00F9D30A4A0A4C002301E013600432A24265
:10187C00FBD304F07DFEFFF75DF9FEE700200020AE
:10188C0000000020F4000020A87A0008F4000020DA
:10189C004C050020FEE70000224B10B51C68002C04
:1018AC0022D0012220494B6813434B601F490B681F
:1018BC0093430B6010000B6818401A42FAD1236E48
:1018CC00002B19D102211A4A53688B4353607E3185
:1018DC0093681942FCD16523E35C002B05D04021B1
:1018EC00134A13688B43136010BD236C002BF6D086
:1018FC004422A25A9A61F2E78023226E5B029A423A
:10190C0008D2236E4B6020660121084A13680B43F2
:10191C001360E9E7074A084B94464B60236E634417
:10192C002366F1E778030020000002400800024023
:10193C00003001400100FFFFFFFF0000F0B5DE4664
:10194C0057464E4645460C004021E0B5436A83B0ED
:10195C001A681142FCD16522825C002A06D1026C05
:10196C00002A03D04421415A090491611A684C4958
:10197C004C4D0A401A605A684B490A405A60E022A2
:10198C005968D2000A4340215A601A680A431A6007
:10199C00022294467E3293461A002378012B4ED0B5
:1019AC00022B00D16CE0002B15D013006522825C59
:1019BC00002A05D1026C002A02D04421415A9161BF
:1019CC0040211A688A431A6003B0F0BCBB46B24689
:1019DC00A946A046F0BD816B677888464646818F44
:1019EC00436A0904B1611F73674699680F42FBD0C3
:1019FC005F4699680F42FBD1A378E71C002B4CD0B3
:101A0C009A4602248021BA440192866B3A78B046F9
:101A1C00868F0092B14646464A46436AB261009AA6
:101A2C001A739A681442FCD09A681142FCD101379F
:101A3C00BA45EAD15446019A2378012BB0D1637888
:101A4C00A71C002B29D09A4602248021BA4401926B
:101A5C00866B3A78B046868F0092B14646464A4627
:101A6C00436AB261009A1A739A681442FCD09A685D
:101A7C001142FCD10137BA45EAD15446019ADBE751
:101A8C0061782B68013180262B6876023342FAD0BC
:101A9C0001390029F7D102347FE73C007DE7C046CD
:101AAC00FF5BFFFF10E000E0FFF0FFFF70B50400EC
:101ABC0040891D004018A18980B2891889B20B0099
:101ACC000200A669B04701002000FFF737FFEB0CBE
:101ADC00E9B2DB02C9081943FC236D09DB001D4088
:101AEC0048232943E55C89B2012D01D149BA89B259
:101AFC004020636A1A681042FCD16522A05C002861
:101B0C0006D1266C002E03D0213AA25A1204B261DF
:101B1C006622A25C002A02D1A26BA68F96611A687B
:101B2C001F4E32401A605A681E4E32405A60022DC7
:101B3C0027D0E0225868D200024340205A601A682D
:101B4C0002431A60CAB21A733E389A681042FCD02B
:101B5C00090A197302219A681142FCD06522A05C13
:101B6C0080219A681142FCD1002805D1226C002AF0
:101B7C0002D04421615A916140211A688A431A604B
:101B8C0070BDF0225D6812012A4340255A601A6824
:101B9C002A431A60D96002219A681142FCD0DFE70F
:101BAC00FF5BFFFFFFF0FFFFF0B557464E46454683
:101BBC00DE46E0B585B01E000EAB1B8817009946BB
:101BCC000FAB1B880C009A4610AB00229B5E019059
:101BDC00984611AB00229B5E029312AB1B789B467E
:101BEC0018AB1B781D000393002900D1B6E000212F
:101BFC007422200004F08EFC48232200E554179B2D
:101C0C00243223CB23C223CB23C223CB23C2A36AEC
:101C1C00002B26D0E16A019D8A0052180121920006
:101C2C009B180C3B1A688A431A601A681142FCD143
:101C3C001A68564901950A401A60039A022A00D183
:101C4C0081E00C211A688A431A601A680A390A431F
:101C5C001A601A683E318A431A601A6840310A4386
:101C6C001A60321CBE4268D392B2331CBE425ED89C
:101C7C0059469BB2002945D1494621805146618085
:101C8C00414661810299A380E280A1814B4560D8D5
:101C9C0052455ED8139B002B5BD0149B002B58D065
:101CAC005B462372139B19AA6361149BA361159B5A
:101CBC00E361169B236223004C3343CA43C312686F
:101CCC001A6000236422A3542367E366019B002B54
:101CDC0010D01B6F002B0AD0633A1D001B6F110034
:101CEC000132D2B2002BF8D164330195E154019B3F
:101CFC00E3661C67200005B0F0BCBB46B246A946A3
:101D0C00A046F0BD02292BD0012936D0032920D1C1
:101D1C0051460298091A891A404609B2884602901F
:101D2C00190013000A004946D1468A46A4E75946D1
:101D3C003B1C9BB200299FD0E4E73A1C92B2331CA7
:101D4C00BE4295D9F3E7A0221968D2000A431A6063
:101D5C0077E774220021200004F0DCFB0020CAE7A6
:101D6C0040464946091AC91A09B288465146029892
:101D7C00091A891A09B202917EE740464946091AA6
:101D8C00C91A029809B280460291C9E7FFF0FFFF19
:101D9C0070B50B1C0400642900D964235A22A35487
:101DAC00E56CDEB2002D25D0E86A64217043FEF7A5
:101DBC00ABF9236D032B2FD014D8012B23D0022B7E
:101DCC0000D1A863012229680A420AD11000013B04
:101DDC009B0098400300296A0B432B622B6813432A
:101DEC002B6070BD042BEDD10122286429680A42B6
:101DFC00F7D1EBE7636D002BF3D05822A25A0029E0
:101E0C0007D09A61EDE70122686329680A42E8D19C
:101E1C00DCE712049A61E4E70122E86329680A42CC
:101E2C00DFD1D3E770B50400006B002819D08021F6
:101E3C001A25A68E114A330483611368490213686C
:101E4C000B42FCD0013D002DF9D186611368802234
:101E5C001A200A4952020B681342FCD001380028A0
:101E6C00F9D16369207A984701002000FFF766FDDD
:101E7C005A232000E15CFFF78BFF70BD10E000E0FF
:101E8C00F0B5C64600B50400080011001A0006ABF8
:101E9C001B88904202D9050010002A00994202D9F1
:101EAC000D0019002B00A588854200D88FE0E6882C
:101EBC008E4200D88BE0954201D8013DAAB29E42D9
:101ECC0001D8013EB3B2161A5D1A01360135A78945
:101EDC0075436689DB1992198019C9199BB2A669D9
:101EEC0092B289B280B2B04701002000FFF726FD04
:101EFC006523E65C002E06D1226C002A03D0213B20
:101F0C00E35A1B0493616623E35C002B02D1A36BA1
:101F1C00A28F9A61079A079BD1B2DB0CDB02C9082E
:101F2C0019435309FC22D200134019434823E35CA4
:101F3C00A06A98464246636A89B2012A00D17CE0C5
:101F4C006827554AE1531F6817401F605F68534A62
:101F5C00174042465F605F68022A3BD1F0221201B3
:101F6C003A435A605A684E4F3A4040275A601A68B2
:101F7C003A431A60002800D183E00126E16A4768E1
:101F8C008A005218013989008E4031009200394381
:101F9C0041608218022059680C3A014359600C3395
:101FAC009360230040216833D36013688B43136024
:101FBC00136840318B43136080235B029D4259D2DE
:101FCC00002355602366012113680B43136080BC0A
:101FDC00B846F0BDE022D2003A435A605A68304FFE
:101FEC003A4040275A601A683A431A600028C4D114
:101FFC000A0A9446CFB2681E002D0DD002221F7320
:10200C0099680A42FCD06146197399680A42FCD05F
:10201C000138F4D26522A65C80219A681142FCD169
:10202C00002E05D1226C002A02D04421615A916104
:10203C0040211A688A431A60C9E768274ABAE253F2
:10204C0091B2154F1A683A401A605A68134F3A40C9
:10205C005A60E0225F68D2003A435A605A68104FC7
:10206C003A4040275A601A683A431A600028BFD099
:10207C006D0082E70B4B53600B4B9C466544256609
:10208C00A1E702206F1E002DC6D0D9609A681042BD
:10209C00FCD0013FF9D2BFE7FF5BFFFFFFF0FFFF72
:1020AC00FFBFFFFFFFFF00000100FFFF00B5C2886C
:1020BC008388013A83B092B2013B019100920021D6
:1020CC0000229BB2FFF7DCFE03B000BDF0B5454625
:1020DC004E46DE465746E0B583B01E000CAB0C00F6
:1020EC00804615000021595EB44200D17CE08A4242
:1020FC0058D08B1A9346DA179B185340321BD017C3
:10210C0012180F00B246A44699464240934206DD8F
:10211C003700A3460E002C00914651466546B4424A
:10212C0068DD5846C01BC717C01978408146A01BF4
:10213C0087B200B2BA46C70F3F187F108D4265DDDB
:10214C000D00310026000C0001218B46494689B256
:10215C008946934267DD43469B889D420DDA434690
:10216C00DB88A34209DD2B0023431B0405D422008A
:10217C00290040460D9BFFF799FC4B46FB1A9AB27F
:10218C001FB21B0403D55D4452442DB217B2013467
:10219C0024B2A642DFDA03B0F0BCBB46B246A94675
:1021AC00A046F0BDB44202DD230034001E00002E18
:1021BC00F1DB43469B88A342EDDD002DEBDB434670
:1021CC00DB888B42E7DDCA43D2170A40E1430D9806
:1021DC00C9172140ADB20190B3B2404692B289B258
:1021EC000095FFF74DFED6E78A42E0DC0B001100AC
:1021FC001D00DCE7301B87B200B2BA46C70F3F1890
:10220C007F108D4230DB1A498B4607E00D00310000
:10221C0026000C0016498B46A642BCDB494689B207
:10222C008946934297DC43469B889C420DDA434691
:10223C00DB889D4209DA2B0023431B0405D42A00BA
:10224C00210040460D9BFFF731FC4B46FB1A9AB21E
:10225C001FB21B0403D55D4452442DB217B2013496
:10226C0024B2A642DFDA96E701218B46D4E7C046BA
:10227C00FFFF0000F0B5C6461D000400884616009E
:10228C0000B582B008AB0027DF5F099B0092019379
:10229C002B00FFF71BFF099B3200414620000193E6
:1022AC0000974346FFF712FF099B3A004146200076
:1022BC00019300972B00FFF709FF099B3200019354
:1022CC0029002B0020000097FFF700FF02B080BC14
:1022DC00B846F0BD30B583B006AC0025645F9942BA
:1022EC0002DD0D0019002B00A24202DD15002200B8
:1022FC002C00002B07DB85888D4204DD002C02DBD3
:10230C00C588954201DC03B030BDD543ED172A409A
:10231C00CD43ED172940079DA4B29BB292B289B26E
:10232C0001950094FFF7ACFDEDE7C046F0B54E46C5
:10233C0045465746DE46E0B5FC27804687B01098E8
:10234C00FF00446811980391C60CC5B2F602ED0863
:10235C00354346093E403543A8B2059048264046D1
:10236C00875D13A991460978129A012F03D105981C
:10237C0045BAA8B20590D60CD0B2C008F6020643F6
:10238C00FC205209C00002401643B2B29246012F03
:10239C0002D152BA92B29246109A0027127A9A42FD
:1023AC0004D81098467A9E4200D372E0109B1B789A
:1023BC005A1ED21001329346042A63DC5846012679
:1023CC00D200013A47439640109A52785743E0198D
:1023DC0001904046446A00295ED0002100270291FA
:1023EC00002A4FD05A46012A45D0022A00D1FDE0DE
:1023FC00032A00D1FDE0042A01D1019A1768019A41
:10240C005A440192002B3DD04A4612B20025924606
:10241C00039C04E001340135A4B2AB421DDD3A004B
:10242C00AA401642F6D04246928821B28A42F1DD89
:10243C004246D2885245EDDD4A46224312B2002A6A
:10244C00E8DB119B52464046FFF730FB109B0134F2
:10245C001B780135A4B2AB42E1DC0299109A013130
:10246C00029152788A420DDD4A46013292B291466F
:10247C005A46012AB9D1019A1778019A5A44019205
:10248C00002BC1D107B0F0BCBB46B246A946A04652
:10249C00F0BD9B1ADFB289E741464D4689896F1E14
:1024AC00CF19039DD219408992B294466A1E8218A4
:1024BC004944A9469A18434648449F6992B26346D8
:1024CC0089B280B2B84701004046FFF737FA43465D
:1024DC00196C002904D044234246D35A1B048B6147
:1024EC00434642469B6B928F9A61402223689343EA
:1024FC0023602368574A134023606368564A13408D
:10250C00636042464823D35C6268022B7AD0E02396
:10251C00DB00134363604022236813432360109B4A
:10252C005A78002A4ED048211878002302919C46F4
:10253C005946039161460491059902338B461099D3
:10254C008C460399012974D0022975D0032976D0C1
:10255C0001990D68039FB9464944019100282AD07E
:10256C00002781462A00BA4051464846164200D000
:10257C005946A2681342FCD0424681460298125C2E
:10258C00022A44D1E160791C4846494511DA584683
:10259C00CB462A008A400700164200D15746A26853
:1025AC001342FCD00131E7608B45F2DC5A4683467E
:1025BC001000624652780499013104918A42C0DCC1
:1025CC004346196C0222A3681A42FCD08022A368ED
:1025DC001A42FCD14022236893432360002900D186
:1025EC0050E744234246D35A8B614BE7019A178834
:1025FC0005E701994F788A783F02120417430A784D
:10260C001743FCE6F0231B011343636083E7CAB254
:10261C00090AC9B22273A2681342FCD06246217324
:10262C00127801379146BA429CDC1000624652780F
:10263C00C1E701990D788DE701990D888AE7019F13
:10264C007978BD7809022D040D4339780D43390092
:10265C0080E7C046FF5BFFFFFFF0FFFFF0B557467A
:10266C004E464546DE46E0B51E0085B00E9B070083
:10267C0098460F9B0C009946109B15009A4611AB7F
:10268C001B789B463378002B23D042461278B988AE
:10269C00A2188A4208DD42465278F9885519ADB223
:1026AC00AA1800248A4214DC5A460392524602921B
:1026BC004A46019242462100009238002A00FFF758
:1026CC0035FE434601361A7833781419A4B2002B20
:1026DC00DDD1FC813D8205B0F0BCBB46B246A946BB
:1026EC00A046F0BD031E0AD002280BD001280BD047
:1026FC00033B5A1E9341AF225B429343B0330348D2
:10270C00C3757047D423FAE76423F8E7340000203C
:10271C0030B504000548250A047149BA140A5BBA9D
:10272C00C570447182714181838130BD20000020CD
:10273C000048704718000020004870471000002027
:10274C0010B5027903000168002A03D000290BD1CF
:10275C00002010BD8020284B1A588A431A50043090
:10276C001A588A431A50F3E74279012A2DD0022ACB
:10277C0015D0002A1FD0032001229B79002B0CD0EE
:10278C00022B30D0032B25D0012BE2D11A4B5868E9
:10279C00884358601868014319601000D9E78024F9
:1027AC00154A10590843105104341059084310515C
:1027BC0002200022E1E784240F4A1059884310516B
:1027CC00043C105908431051F2E780240A4A10596E
:1027DC008843E8E7084B18680843186058680143B9
:1027EC0059601000B5E7044B1868884318605868A6
:1027FC00014359601000ACE700180240F0B54E469A
:10280C00DE4657464546E0B50E680024002E13D12F
:10281C005FE0C568A84647460D691F4055433D43D8
:10282C00C5605B4605682B4065466A4313430360ED
:10283C0033000134E3404CD001233500A3401D404C
:10284C001E42F5D02A006A434B6801279C46530070
:10285C009B18DB437F4267449B46012FD9D887687E
:10286C00B9468F685743B8464F461F40B94647464E
:10287C004B461F43876043681F00CB68AF43B84685
:10288C001F006F43B94647464B461F434760C3681A
:10289C0099460B691F0057435B46B8464F461F408D
:1028AC00B94647464B461F436346C760022BB8D117
:1028BC004B699846FF2D13D81300534399464F4646
:1028CC00056A1B01DB1B9D4343467B431D4305628D
:1028DC00A7E70020F0BCBB46B246A946A046F0BD17
:1028EC002D0A6D436D43436A99462B015B1B9A4637
:1028FC004B465746BB43994643466B431D004B46DC
:10290C001D4345628DE7C0460368020070B5012087
:10291C005B0629D44E680B6848693343CE6815684A
:10292C0033430E690C6A33438E6903433343CE69D8
:10293C00000C3343114E234335402B431360536833
:10294C008D680F4E284333401843802350601B0181
:10295C009D4204D28020536840010343536080237E
:10296C009B019C4205D00020D36906490B40D361E2
:10297C0070BD8B8C00201361F6E7C0464000FFFF52
:10298C00FBF0FFFFFFF7FFFF30B5204D03688C68AD
:10299C000A88A84227D08025ED05A8420FD01C4DEF
:1029AC00A8420CD01B4DA8422BD01B4DA8421ED0C8
:1029BC001A4DA8421BD00360C46282620DE07025E0
:1029CC00AB434D682B43164D2B40CD682B43036016
:1029DC00124BC4628262984210D0012243691343A5
:1029EC004361002030BD7025AB434D682B430C4D2B
:1029FC002B40CD682B430360C46282620B69036376
:102A0C00EBE7074DC9682B400B43D4E7002C014082
:102A1C0000040040002000400044014000480140F8
:102A2C00FFFCFFFF802370B55B01994200D1DBE016
:102A3C002DD8102900D102E180235B00994252D19C
:102A4C00036A9B4E33400362046A9A4B4568C16922
:102A5C00194013681943984B1C4013691B022343FC
:102A6C005468334024021C43944B984200D173E0C9
:102A7C00934B984200D16FE0924B984200D16BE09F
:102A8C00D3684560C161C363046200204FE08023BA
:102A9C005B02994200D17CE080235B03994245D1D3
:102AAC00036A894D894C2B400362016A436D2340B4
:102ABC00146824021C43864B194013691B050B43F5
:102ACC0051682B4009050B437C49884259D07C49FD
:102ADC00884256D07B49884253D0D2684465C2653F
:102AEC000362002023E0012920D1036A714E8B433D
:102AFC000362036A456884693440166834430226CD
:102B0C00B343166933438B4351680B436B4988427B
:102B1C000ED06B4988420BD06A49884208D0D268E3
:102B2C004560846142630362002000E0012070BDB7
:102B3C0008218B43516989001943042399439368F5
:102B4C009B000B435A492940956929435A4D29400A
:102B5C00D5696D000D43E2E75E4B1C4053699B0247
:102B6C0023435D4C23409468A4021C435B4B1D40E3
:102B7C0093691B012B435A4D2B40D5696D011D43A5
:102B8C007EE745689169574E89023540294341607B
:102B9C00A3E7036A544D554C2B400362016A436D05
:102BAC00234014681C43524B194013691B040B43FC
:102BBC0051682B4009040B43404988420CD04049D2
:102BCC00884209D03F49884206D0D2684465816D5D
:102BDC00826503620020AAE745689169424E0902AA
:102BEC00354029434160F0E7036A3C4E414C334089
:102BFC000362016A4568C3692340146824021C43BC
:102C0C00374B194013691B030B43516833400903BD
:102C1C000B432A4988420CD02949884209D02949BA
:102C2C00884206D0D2684560C46102640362002009
:102C3C007DE7314929409569AD010D43F2E7036AFF
:102C4C002C4C8B430362066A4568836923401468E5
:102C5C0024021C4320239E4313691B0133438B43E3
:102C6C00516809011943154B98420CD0144B9842EA
:102C7C0009D0144B984206D0D368456084618363B5
:102C8C000162002053E78023994353699B010B4356
:102C9C0040218B439168890119430F4B1D40936967
:102CAC009B002B430B4D2B40D569ED001D43E3E7F7
:102CBC00FFFEFFFF8CFFFEFFFFFDFFFF002C01401E
:102CCC000044014000480140FFFFEFFFFF8FFFFE73
:102CDC00FFFFDFFFFFF7FFFFFFFBFFFFFFEFFFFF34
:102CEC00FFDFFFFFFFFFFBFFFFFFFEFF8FFFFEFF7E
:102CFC00FFFFFDFFFF8CFFFEFFBFFFFF8B680A7B12
:102D0C001A43194B1A404B681A43184B1A400B685C
:102D1C001A43174B1A40CB891343164A13400A69BE
:102D2C001343154A1340CA6A1343144A904202D003
:102D3C00436400207047124A13404A691343114AF6
:102D4C0013408A691343104A13404A6A13430F4ACB
:102D5C001340CA6913430E4A13400A6A13430D4ABF
:102D6C0013408A6A1343E3E7FFFBFFFFFFF7FFFF04
:102D7C00FFEFFFFFFFDFFFFFFF3FFFFF002C0140D6
:102D8C00FFFFF0FFFFFFFFEFFFFF0FFFFFFFFFFE57
:102D9C00FFFFFFFDFFFFFFDFFA2110B58900FDF7F4
:102DAC00B3F90022034B013858609A6005321A605F
:102DBC0010BDC04610E000E0094A82B013680193D0
:102DCC00019B431C591E8B418021C018490213687A
:102DDC000B42FCD001380028F9D102B07047C04634
:102DEC0010E000E0014B18607047C0460000002066
:102DFC00F8B504001D000F00160000211822183031
:102E0C0003F088FB069B2760E360079B66602361E9
:102E1C00089BA5606361F8BD0300026870B510697A
:102E2C005A68DC680240504242419868D2B200694C
:102E3C00044201D10220024318695D690069140043
:102E4C00054201D1042414432C201D5C102D1FD0ED
:102E5C00185C20281CD0481E01281ED9032913D128
:102E6C00364A196A126891420ED80420197E044021
:102E7C0000294ED1197E002906D1002C04D0012145
:102E8C001976DA6132321A6200202C22985470BD05
:102E9C00032932D001390129F6D82421585C411E6E
:102EAC00884101214042014325201D5CAD00EDB25B
:102EBC001D541D5C2A431A540F221E5C20483240BC
:102ECC0082569D6A5143491999629A6A032A0ADD0E
:102EDC000120640702D500220F301A76002225212A
:102EEC009A625A54D1E79A6A0332CDDA0220640707
:102EFC00F4D500221E301A76F0E7124800218446E1
:102F0C000E4A19761268002062441A622C229954D7
:102F1C00BDE7002C0DD1110032311C761962D96934
:102F2C00521AFA21C9008A4264416442204004309A
:102F3C00ABE7197E0029A2D0A6E7C046700300209B
:102F4C00E0750008B80B00002423C1547047C0463C
:102F5C0010B502F025F910BD10B501F0FFFF10BD42
:102F6C0070B5A0248025E4056D03A56102F01EF95F
:102F7C001023A36170BDC046F8B503684E464546A4
:102F8C00DE46574699460023E0B58B75836980462B
:102F9C000C00002B00D1BFE0C36A013300D1C1E0AB
:102FAC004B46D9680A88002A22D0282302250026FD
:102FBC0000279A46002E08D1A02380209B01D3180D
:102FCC009BB20001834200D2CAE053463004DB1BA3
:102FDC00884910439B4601F09DFDFF2800D8AAE0CC
:102FEC005B46012B00D9BDE000239B46002E01D08F
:102FFC0000239B465B460022E3189A754346DB6927
:10300C00A07D1A78202A00D193E0052A00D1E03265
:10301C00012162725D780A00202D05D0052D00D1AA
:10302C00E0354A1C61184D729D781100202D05D099
:10303C00052D00D1E035511CA2185572DD780A001F
:10304C00202D05D0052D00D1E0354A1C61184D729C
:10305C001D791100202D05D0052D00D1E035511C16
:10306C00A21855725D790A00202D05D0052D00D1CE
:10307C00E0354A1C61184D729D791100202D05D048
:10308C00052D00D1E035511CA2185572DD790A00CE
:10309C00202D05D0052D00D1E0354A1C61184D724C
:1030AC001D7A202D09D0052D00D1E0352E27511C7D
:1030BC00A6186118777202324D725D7A202D00D1FC
:1030CC0084E0052D00D1E035511CA21855729D7A73
:1030DC00202D4DD0052D00D1E03562180021557200
:1030EC009172002849D03F22D97A0A4022725A7F25
:1030FC00197F12020A43997F09041143DA7F1206E1
:10310C000A432260DA7D997D12020A43E2801A7E1C
:10311C005B7E1B021343A380F0BCBB46B246A946A0
:10312C00A046F8BD4346DB6900201A78202A00D05F
:10313C006BE700216EE7002800D155E75B46002BBA
:10314C0000D153E7E31998750123FF184B4600266D
:10315C00D9684A5B0235002A00D02BE7BB4645E70D
:10316C001600F6E7E319020A9A75D8750223ECE704
:10317C006218002151720028B5D12100627A08250D
:10318C000A31002A0FD132E010004138192804D836
:10319C00187B284201D02032D2B20A730A78481C1C
:1031AC00002A08D001002E2AEED10A730A781025C5
:1031BC00481C002AF6D1091B0939002261188A75AE
:1031CC001A7B002A00D08EE762728CE79D7A202D44
:1031DC0001D011007EE70025A1184D72002800D007
:1031EC0081E7002AC9D13F220121A275E5E7002120
:1031FC00E3E7C0466203000070B501260023764267
:10320C0004000D00037186624B1C00D07AE0444A26
:10321C00434BA2185578E35C2D021D432C23E35C31
:10322C00EB2B09D01833DBB2012B05D93D4BE81839
:10323C00431E9841023070BD3B4B9D424BD0230046
:10324C0037331A785B7803201B0213435A1E134240
:10325C00F1D18022032092009342ECD13923E35C1C
:10326C00002BE8D05A1E1342E5D13A23E25C01331D
:10327C00E35C1B021343D9D03C23E35C013B012BE1
:10328C00D4D823003D331A785B781B021343CDD07E
:10329C0023003F331A785B781B0213437F2B11D822
:1032AC004C23E25C0133E35C1B0213434E22A25C11
:1032BC0012041A434F23E35C1B0613438022520271
:1032CC009342B3D34223E25CE41863781B021343AA
:1032DC00ACD00020AFE72000082214497E3003F068
:1032EC00F8F80028F5D0230037331A785B780220E1
:1032FC001B0213435A1E13429DD18022920093420B
:10330C0099D1ABE70A002100012340782C31FFF75B
:10331C0027FE002801D1A56279E70420A6628AE77E
:10332C002A020000AB55FFFF55AA0000F0750008FB
:10333C00F0B5DE4657464E4645460023E0B5040040
:10334C00006883B00B60002800D11DE1020002E090
:10335C003A2B00D10FE1137801321F2BF8D8B44B64
:10336C001C68002C00D111E123780C606078002BD4
:10337C0005D0FFF7EDFDC00700D4B2E06078002364
:10338C002370FFF7E9FDC00700D5ACE00021200059
:10339C00FFF732FF022800D1ADE0042800D100E194
:1033AC00012800D9E5E0A36A80229B46230037332D
:1033BC0019785B7892001B020B43934200D0D8E043
:1033CC002200422342325578E35C2D021D430DD17D
:1033DC0051225023A25CE35C12021A435223E35C99
:1033EC001B0413435322A55C2D061D433C2365612E
:1033FC00E65C731EE670012B00D9BAE03923E75C5A
:10340C006781002F00D1B4E07B1E1F4200D0B0E0DA
:10341C0023003D331A785B781B02134398462381B3
:10342C001B0700D0A5E023003F331A785B781B0202
:10343C0013430DD14C33E25C0133E35C1B021343A9
:10344C004E22A25C12041A434F23E35C1B06134367
:10345C003A22A15C0132A25C12020A43914600D1CD
:10346C0087E0424612094A4492466E43B2449A455A
:10347C0000D97EE052469B1A180039000193FCF7E4
:10348C0043FE019BBB4200D273E06A4B984200D9C9
:10349C006FE051464B46684F5944821C5B44B8421E
:1034AC0000D9A4E0654F2261B84200D88FE058469D
:1034BC0061624146A061E36100295AD0F6180223EB
:1034CC0052005F4926628C466244520A954250D3A0
:1034DC005C4A2370138801339BB21380E3805A4BF0
:1034EC00E360002000E0032003B0F0BCBB46B24612
:1034FC00A946A046F0BD2100F923F331FF314A78EB
:10350C005B00E35C12021A438B78C9781B041343EB
:10351C004E4A0906A01819434C4B4278E35C120240
:10352C001A438378C5781B041343494A2D06A01807
:10353C001D43474B4278E35C12021A438378C678EA
:10354C001B041343434A3606A0181E43414B4278D2
:10355C00E35C12021A438378C7781B0413433F06BB
:10356C001F4300291FD1002D23D1002E28D1002F5D
:10357C000ED10D20B8E70378302B05D1831C0B201E
:10358C009A42B1D12260EAE60B20ADE70C20ABE702
:10359C0039002000FFF730FE012800D803E704288B
:1035AC00E7D10120A0E72000FFF726FE0128DAD89A
:1035BC00F9E629002000FFF71FFE0128D5D8F2E616
:1035CC0031002000FFF718FE0128D0D8EBE6584652
:1035DC0061624146A061E3610029CAD00121F6185D
:1035EC0053009B185B080A409A18012369E7584658
:1035FC00E36156232261A0616162E15C23005633D2
:10360C005B781B020B4341461943B2D15921582315
:10361C00615CE35C090219435A23E35C92001B04CE
:10362C000B435B21665C36061E43032349E7C04609
:10363C00D0030020F5FFFF0FF5FF0000F50F000091
:10364C00FF010000CE0300207C03002002020000DA
:10365C001202000022020000F0B5C64605000C0064
:10366C00012000B5012909D92B69994206D22B7882
:10367C00022B3ED0032B22D0012B02D080BCB846AB
:10368C00F0BD4E08EA697618770AAB6ABF189F42FC
:10369C0055D1771C790A8846F605F60DAE192C36ED
:1036AC0090443678984557D1FF05FF0DEF192C370C
:1036BC00387800023043E4075AD50009DEE72F00C2
:1036CC00EB69CE09F618AB6A2C379E422DD1FE233E
:1036DC00A4005B001C403B5D3C196278E078120250
:1036EC001A43A37800061B04134318430001000976
:1036FC00C4E72F00EB690E0AF618AB6A2C379E4212
:10370C0009D1FF2364005B001C403B5D3C196078D1
:10371C0000021843B2E70123320039006878FFF742
:10372C001FFC002827D1AE62EBE7012332003900E1
:10373C006878FFF715FC00281DD1AE62C7E7290099
:10374C0001233A0068782C31FFF70AFC002812D1CB
:10375C003B00EA69AF629CE7290001234246687886
:10376C002C31FFF7FDFB002805D14346AB629BE7EC
:10377C000005000D82E701204042A8627EE7C046AA
:10378C00F0B500234F464646D6468468C0B50600C1
:10379C0007680361002C12D13B78022B0BD83B89B4
:1037AC00002B12D03B6AB3617461002B0DD02C3707
:1037BC000020F7610AE03B6A002BF0D01C007A89EC
:1037CC00002A00D0A7E0012C05D10220E0BCBA46AB
:1037DC00B146A846F0BD3D002B69A342F5D92B7824
:1037EC00022B4ED0032B29D0012BEED16308984627
:1037FC00A04443465B0A9946E869A96A8144894515
:10380C0063D10123434499464346DB05DB0DEB189A
:10381C002C331B7898464B465B0A9A4682448A4561
:10382C0044D14B464246DB05DB0DEB182C331B78A1
:10383C001B021343E40745D51C091BE0E30998461A
:10384C002C239946EA69AB6A9044A94498454AD11D
:10385C00FE23A4005B001C404B461B5D4C4462786D
:10386C0012021A43A378E4781B04134324061C4366
:10387C0024012409012CA8D93B699C42A5D23568A6
:10388C00AAE7230A98462C239946EA69AB6A904426
:10389C00A944984534D1FF2364005B001C404B467F
:1038AC001B5D4C44647824021C43E3E7290001238C
:1038BC00524668782C31FFF753FB00281BD1534636
:1038CC00AB62AEE71B051C0DD4E7290001234A4669
:1038DC0068782C31FFF744FB00280CD14B46494645
:1038EC00E869AB628DE70123424649466878FFF7E9
:1038FC0037FB002818D001235B420120AB6265E73F
:10390C000123424649466878FFF72AFB0028F2D18A
:10391C004346AB62BFE73969A31E02398B4206D21C
:10392C0053437A6A9B183EE74346AB6290E7002309
:10393C007461B36149E7C046F0B5DE4657464E4662
:10394C004546E0B503688DB008930B0003901A78D8
:10395C002F2A01D05C2A01D10133F8E798460023C5
:10396C00039FBB6043461878089B1F2800D8E5E2EC
:10397C00BE4A0592BE4A0A92DB689B4600280BD1D0
:10398C0000235A461380062630000DB0F0BCBB460F
:10399C00B246A946A046F0BD4346013301933B0015
:1039AC0000245F4646469946B24901F0D5F8051EFB
:1039BC00E9D01F2800D8F8E22F2800D12FE25C288C
:1039CC0000D12CE27F2805D80100059802F0AAFD51
:1039DC000028D8D1282CD6D0019B3D800134305DF5
:1039EC000133019302370028DED104234F46984659
:1039FC00A14BE3185B005B441A88202A01D02E2AC5
:103A0C0006D1013C023B002CF6D15B461C80BAE788
:103A1C0000235A46660093531388202B00D048E2AB
:103A2C005B46002102331A000233981E00880D00F9
:103A3C0001312028F7D091460235424603231A4320
:103A4C009046B21E13005B4403E0013C023B002C89
:103A5C0002D01A882E2AF8D120239C46BC446346F7
:103A6C000B2218002021079302F054FD4B461B88B3
:103A7C009946002B00D1A4E20023029308339A4606
:103A8C0000234E46B946270044460493202E00D10D
:103A9C00B9E12E2E00D1D6E1049B9A4500D9EEE176
:103AAC0053460B2B00D1D4E1AF4200D107E20323E4
:103ABC001C43AF4200D302E24F462023FA5CA046DF
:103ACC00E52A01D1E03AFA545346082B00D100E222
:103ADC000C23029A13400C2B00D1E5E1029BDB4333
:103AEC009B0700D1E0E143469B070DD4029BDB070B
:103AFC0003D5424610231A439046029B5B0703D51D
:103B0C00424608231A43904643462B2538007B55E2
:103B1C003C68FFF735FE031E00D0A9E1013BFB62B8
:103B2C00BB69A1469846FF2306930293D33B9C4660
:103B3C00A444634604933F2346469B464B469B6AEC
:103B4C00B34210D04B463200587804990123FFF74A
:103B5C0007FA002805D001234A465B4201269362EE
:103B6C0012E74B469E62FE693378002B1CD05A46F6
:103B7C00F57A2A40BA71E52B06D008210C002C40AE
:103B8C0029422ED00F2A45D001235B42FB62013320
:103B9C00FF33029380233D693C6820359B039D4293
:103BAC0007D30023039A936104262B23039AD35C37
:103BBC0061E1BE69002EF7D0EB05DA0D9046002BC3
:103BCC000AD179690136BE61002900D07DE02289D5
:103BDC006B09934200D30CE12C3444443D61FC61ED
:103BEC00ACE70F2A16D0029B002B00D18FE02B23C1
:103BFC00FB5C9846DB0707D40B223000079902F0D8
:103C0C0068FC002800D1D4E101235B42FB62FF2356
:103C1C000293BFE72B214022795C0A42BAD11A42A7
:103C2C0000D1E1E09343717B02933B690691FB6207
:103C3C00737B069A9342EAD1F37EB27E1B02134346
:103C4C00E5D14B46DB68327809933F231340013BA7
:103C5C005A00D2189200904698444B46BA4601211D
:103C6C003700064D46460B9320E0C046FC75000815
:103C7C000876000862030000FFFFFF7F90760008C3
:103C8C00282E1ED8200000F07DFF731C9946099B3E
:103C9C0076008046F05A00F075FF804511D1210066
:103CAC004E46D14B01359D4200D161E12B78FA5C37
:103CBC00FB185C78240214430029E1D1CB4B9C42C5
:103CCC00EFD00B9B57469946A1E76A0A100063890F
:103CDC00013B184082461A4200D07DE72000FFF7D6
:103CEC00BBFC012800D800E1431C00D1FBE0236998
:103CFC00984200D3FBE07861023B0238984200D333
:103D0C00EEE06389666A58438619BE6164E73278CF
:103D1C005308D201134372789B18DAB25208DB01B4
:103D2C001A43B378D2B2D218D3B25B08D201134380
:103D3C00F278DBB29B18DAB25208DB011A43337902
:103D4C00D2B2D218D3B25B08D20113437279DBB270
:103D5C009B18DAB25208DB011A43B379D2B2D218EB
:103D6C00D3B25B08D2011343F279DBB29B18DAB2FF
:103D7C005208DB011A43337AD2B2D218D3B25B08A1
:103D8C00D2011343727ADBB29B18DAB25208DB0110
:103D9C001343B27A9B18069ADBB2934200D026E703
:103DAC002B23FB5CA04699464B465B0700D506E1EE
:103DBC00ED0626D508983A690300D205D20D2C33AE
:103DCC009B18DA7E997E12020A430178032905D1E9
:103DDC00197D5B7D1B020B431B041A43BA60019ACD
:103DEC003B6890461078C7E5029A934200D00EE7E4
:103DFC001EE72B23039A9161D35C04265B0700D545
:103E0C00C2E50526C0E503231C432B00E4B25A4649
:103E1C005D1C5B009E5A002E00D037E64CE64F46E8
:103E2C00019A13782F2B01D05C2B01D10132F8E7CA
:103E3C001F21019200229942524193009846002C76
:103E4C0000D0D5E59CE5AF42DDD153460B2B00D01D
:103E5C002FE64F462023FA5CA046E52A00D1B9E0B4
:103E6C00032342461A439046029A0933134032E622
:103E7C000600039B5B5D042E00D085E5BDE7AF42D9
:103E8C00E3D07F2E39D831000A9802F04BFB002882
:103E9C005CD003235F261C43049B5A1C4B442033E9
:103EAC001E7004922B00B2E7424602231A4390463E
:103EBC002AE6D94601252E2B00D0C2E5BDE50B2202
:103ECC00029B92469B00DBB2033A029304923B00A6
:103EDC009DE7029B9B00DAB202920C221340FAE59A
:103EEC000026BE6178E601265FE602265DE65346B3
:103EFC00039A93612B23D35C7FE702233000234387
:103F0C003B49984600F006FE0600030607D57F23C2
:103F1C00384A0340D65C4446002EBAD0B3E7FF289B
:103F2C00F9D95346049A013B934256D9531C4A443F
:103F3C002032010A44461170C6B2AEE72B23802210
:103F4C003800FA54FFF71CFC06001DE53300413B1A
:103F5C009BB2192B22D93300613B9BB2192B04D88D
:103F6C000123029A203E1A430292049BF6B294E774
:103F7C00B0463E000B9B5746994633785B0608D5F6
:103F8C00002906D04346099A5B009B5A002B00D0AF
:103F9C003DE6029B013BDBB20293FBE50223029A56
:103FAC00F6B21A430292049B77E704234F469846D5
:103FBC0045E7C1464B46A0465B0700D4F8E64646AB
:103FCC00E2E4424602331A4002924246134200D1C6
:103FDC0093E599E50522FA5442E7032352461C4324
:103FEC0004922B0013E7C0469D760008FFFF0000EB
:103FFC00620300001076000810B582B001900091A9
:10400C00081E26D00C0001E03A2B1AD0237801347C
:10401C001F2BF9D8104B1968002902D0002018600A
:10402C0008700199002902D0002019600880002036
:10403C00002A01D102B010BD684601A9FFF778F93A
:10404C00F8E70378302B04D1811C0B208C42F1D182
:10405C00E0E70B20EEE7C046D0030020F0B591B0AE
:10406C00040015000191002844D003A901A8FFF712
:10407C005FF9002803D00023236011B0F0BD039E2C
:10408C00019904A80496FFF757FC0028F3D16A465F
:10409C0010212B235218D35C7F2B2DD810226B466A
:1040AC0010009B7D18401A4228D10B9BDA7E997E1A
:1040BC0012020A433178032905D1597D1F7D09026B
:1040CC00394309040A43A260597F1A7F090211433C
:1040DC009A7FDB7F12040A431B061343E3602660BE
:1040EC00F388A38001232B40237400236374E361C2
:1040FC006361C2E70920C0E70620BCE70420BAE7E9
:10410C00F0B557464E464546DE46E0B51F00002347
:10411C0004008846160085B03B60002809D003686F
:10412C00002B06D01A78002A03D08188DA889142B5
:10413C0007D0092005B0F0BCBB46B246A946A04644
:10414C00F0BD5878FEF704FF01220242F1D1607CE9
:10415C000028EFD11100237C19408A461A4200D165
:10416C009CE02368E56899466369ED1AB54200D96D
:10417C003500002DDED0802292009346D53AFF3ACE
:10418C004A4401925246BA462F0002920390DA0535
:10419C00D10D002A36D0E6695B465D1ABD4200D9C6
:1041AC003D004B469B6A9E4217D04B4632005878D6
:1041BC0001990123FEF7D4FE002809D0029B4A4640
:1041CC009A4601235B429362012350466374B1E724
:1041DC004B4661699E62C905C90D019B2A009C462C
:1041EC004046614402F0EAF9534652461B687F1B75
:1041FC005B1913606369A844EB186361002FC6D187
:10420C00039897E74A46590A0D005289013A15401E
:10421C00114224D04B46A0691B690238023B9842DC
:10422C002BD24B464A465B89526A58438218002A65
:10423C0023D0AE185F4524D37A0A1100AA189A42EB
:10424C0001D95B1B19004B460D00587832000B004E
:10425C004146FEF785FE002818D16D02C4E7002BFD
:10426C0017D1A068012808D9431C0FD04B461B69F5
:10427C00A061023B02389842D3D30223022063741C
:10428C0058E76169E661C905C90D85E7029B9A4645
:10429C009AE7A1692068FFF7DFF9E3E7072049E710
:1042AC0010B5041E09D00368002B06D01A78002A1A
:1042BC0003D08188DA88914201D0092010BD58784A
:1042CC00FEF746FE01220300100018401A42F4D1FA
:1042DC002060F3E7F0B54546DE4657464E46E0B55E
:1042EC0004000D0083B0002809D00368002B06D011
:1042FC001A78002A03D08188DA88914209D00923E0
:10430C009846404603B0F0BCBB46B246A946A04610
:10431C00F0BD5878FEF71CFEC007F0D4637C9846BD
:10432C00002BEED12368E7689A46AF4200D92F00E4
:10433C00002365696361002FE3D053465E897602E2
:10434C00002D19D03100781EFBF7DEFE013D8146B1
:10435C0031002800FBF7D8FE81450DD37042A369CC
:10436C0028406061002B00D0EDE0C005C9D0E269A7
:10437C009A42C6D0E361C4E7A568A561002DC0D000
:10438C00B94600204E4500D3DBE030186061012DAA
:10439C000AD04B469B1B994643465746B0464E4661
:1043AC0001933B699D4203D3022398466374A8E7AB
:1043BC003B78022B57D0032B29D0012BF4D16B085F
:1043CC009946A9444B465B0A9B46F969BA6A8B44E9
:1043DC00934573D101234B449B464B46DB05DB0DC8
:1043EC00FB182C331B7800935B465B0A9946894477
:1043FC00914571D15B46DB05DB0DFB182C331B782B
:10440C00009A1B021343ED0772D51D091BE0EB0943
:10441C0099462C239B46FA69BB6A9144BB44994547
:10442C0041D1FE23AD005B001D405B465A5D5D44EF
:10443C00697809021143AA78ED7812040A432D0613
:10444C0015432D012D09012DAED953461B69AB42E5
:10445C00AAD96069A561464554D9434640442768AA
:10446C00F61A60619DE72B0A99462C239B46FA6944
:10447C00BB6A9144BB4499450AD1FF236D005B0094
:10448C001D405B465A5D5D446D782D021543DAE79D
:10449C0001234A4659467878FEF762FD00282AD156
:1044AC004B46BB62E9E701234A4659467878FEF74A
:1044BC0057FD00281FD14B46BB62B2E739000123E0
:1044CC005A4678782C31FEF74BFD002813D15B4609
:1044DC005A46F969BB627DE7390001234A46787870
:1044EC002C31FEF73DFD002805D14B46BB6281E720
:1044FC001B051D0DA7E701235B42BB6202339846E7
:10450C006374FEE6019BB146984648444B46DA0577
:10451C006061D30D002A00D127E753461B69023D89
:10452C00023B9D4200D33FE753465B895D435346B4
:10453C005B6AED18002D00D136E74B465B0A5B1920
:10454C0013E73800E2E73A1A91461D001AE7C04615
:10455C0030B585B0041E01912FD003A901A8FEF738
:10456C00E7FE002803D00023236005B030BD039D77
:10457C00200001992560FFF7DFF9002819D12B23C2
:10458C00E35C7F2B0BD8A379DB0614D5E269D37ED1
:10459C00917E1B020B432978032910D0A360EB8872
:1045AC002000A380FFF7ECF8042804D00028DCD00E
:1045BC00D9E70428D7D10520D5E70920D5E7117D07
:1045CC00527D12020A4312041343A360E7E7C0466C
:1045DC0010B5041E09D00368002B06D01A78002AE7
:1045EC0003D08188DA88914201D0092010BD587817
:1045FC00FEF7AEFC01220300100018401A42F4D161
:10460C002060F3E7F0B5DE4657464E464546E0B52A
:10461C0087B0041E029109D00368002B06D01A78CB
:10462C00002A03D08188DA88914209D009239B465D
:10463C00584607B0F0BCBB46B246A946A046F0BDF2
:10464C005878FEF785FC01231A000240934603427A
:10465C00ECD1029B002B00D1D4E02368A6699846CC
:10466C00FF2399460393D33B434401933F239A463C
:10467C00002E34D043469B6AB34213D043463200DB
:10468C00587801990123FEF76BFC002808D0012310
:10469C0042465B4293620023A36101239B46C7E71A
:1046AC0043469E62E3691978002916D05046DA7A9F
:1046BC000240A271E52907D02E2905D02020150033
:1046CC008543082D00D082E0FF239946256980237D
:1046DC00203527689B039D423ED30023A361200015
:1046EC000299FEF749FC80232569266820359B0337
:1046FC009D4200D383E0A369002B99D0EA05D70D26
:10470C00002A24D161690133A361002900D1F6E0AC
:10471C006A0A10007389013B184080461A4216D170
:10472C003000FEF799FF012800D8EEE1431CB4D00D
:10473C003369984263D26061023B0238984204D2DA
:10474C00738958438046736A98444346A3612C3658
:10475C00F6192561E6616BE7A669002EBDD0EB0565
:10476C00DA0D002B04D02C37BF182561E76181E7E7
:10477C0061690136A66100290AD13A896B09934215
:10478C00ABD22C372561E761002E00D072E7A6E78B
:10479C006A0A10007B89013B184004901A42F0D140
:1047AC003800FEF759FF012800D8B4E0431C24D090
:1047BC003B69984291D26061023B0238984200D327
:1047CC00A3E07B897E6A58438619A661D9E70F2A34
:1047DC0000D0A3E0313225690A420BD091438946BF
:1047EC00587BE56203905A7B03998A420FD0FF23D2
:1047FC0099466CE74945FAD1F5E701239B4600231E
:10480C00A36115E72000FEF7BBFF834610E7DA7EB5
:10481C00997E12020A43EAD1197840329143013948
:10482C004A0052189200521899785878090201439C
:10483C00282ADCD84046C6685000315205901879B9
:10484C000496DE7800023043002900D0B6E0B04A6E
:10485C009042CCD19A79597912020A431700AC4A8A
:10486C009742C4D11E7ADA7936021643A84A964288
:10487C00BDD1987A5A7A00021043A54A9042B6D11B
:10488C00DE7B9A7B36021643A14A9642AFD1587C06
:10489C001A7C000210439E4A9042A8D1DE7C9A7C7E
:1048AC00360216439A4A9642A1D15A7D197D1202BC
:1048BC000A439446964A944599D1D87D9A7D000234
:1048CC001043934A904292D15E7E1A7E3602164372
:1048DC008F4A96428BD1587F1A7F000210438C4A24
:1048EC00904284D1DE7F9A7F36021643884B9E42DB
:1048FC0000D07CE74B46013BDBB29946E7E63289B8
:10490C006B09934200D222E779E7049B2C37A36111
:10491C002561E761E3E602239B4670E74A46002ADD
:10492C0048D119784A08C9010A4359785218D1B2AA
:10493C004908D20111439A78C9B28918CAB25208EF
:10494C00C9010A43D978D2B25218D1B24908D2015E
:10495C0011431A79C9B28918CAB25208C9010A435B
:10496C005979D2B25218D1B24908D20111439A796D
:10497C00C9B28918CAB25208C9010A43D979D2B24C
:10498C005218D1B24908D20111431A7AC9B2891806
:10499C00CAB25208C9010A43597AD2B25218D1B2DA
:1049AC009B7A4908D2010A43D318039ADBB293428B
:1049BC0000D194E601235B42E36290E6511C282A65
:1049CC0000D114E7049E490070525E79B4466746E4
:1049DC009E7936023743002800D140E7272A00D1C0
:1049EC0005E70498844661444F801E7AD8793602D4
:1049FC000643002F00D139E7262A00D1F7E68E8036
:104A0C00587A84466746987A00023843002E00D1C3
:104A1C0033E7252A00D1EAE6C8809E7BB446674678
:104A2C00DE7B36023E43002800D12DE7242A00D13C
:104A3C00DDE60E81187C84466746587C00023843BC
:104A4C00002E00D127E7232A00D1D0E648819E7C96
:104A5C00B4466746DE7C36023E43002800D121E78F
:104A6C00222A00D1C3E68E81187D84466746587D84
:104A7C0000020743BC46002E00D11BE7212A00D1BF
:104A8C00B5E6CF81D87D9E7D00023043002F00D14A
:104A9C0017E7202A00D1AAE608821E7EB446674694
:104AAC005E7E36023E43002800D111E71F2A00D15A
:104ABC009DE64E82187F84466746587F0002384335
:104ACC00002E00D10BE71E2A00D190E688829E7F33
:104ADC00B4466746DE7F36023E43002800D105E728
:104AEC001D2A00D183E6CE821B785B0600D401E739
:104AFC00002E00D1FEE61C2A00D178E6059B049F0F
:104B0C009C46002367447B83F4E602239B468FE597
:104B1C00FFFF000002007F2801D880B2704780237D
:104B2C0000205B029A42F9D2094B9942F6D100233C
:104B3C00084904E001339BB20231802B05D0088870
:104B4C009042F7D1803398B2E8E70020E6E7C04600
:104B5C0062030000747900087F2803D9064B994240
:104B6C0001D000207047FF28FBD8044B9C46044B17
:104B7C0060444000185AF5E76203000080FFFF7F95
:104B8C00747900088023F0B55B02984217D2802319
:104B9C0086B25B01984213D2244AFF270AE08E4268
:104BAC000CD35B8804321C0A3B405D18A84209DB1D
:104BBC00002C0DD0118813000029F0D13000F0BD6D
:104BCC001B4AEAE7082CF9D81A4BA4001B599F463C
:104BDC005B00D218EEE7503EB6B23000EFE7083675
:104BEC00B6B23000EBE71A3EB6B23000E7E7303E23
:104BFC00B6B23000E3E7203EB6B23000DFE7103E3D
:104C0C00B6B23000DBE70123711A0B40F61AB6B2CC
:104C1C003000D4E7411A49008E5A3000CFE7064BDA
:104C2C009C466644B6B23000C9E7C046807700089F
:104C3C00C4760008A0760008A0E3FFFFF0B583B0AF
:104C4C00FF2314006A460E001021D371384B0E2737
:104C5C005A680A435A608022596852000A43032159
:104C6C005A60344B5A680A435A605A6832490A40AF
:104C7C005A60324A32491568BD4315600D68BD4310
:104C8C000D601D6832373D431D60136800283FD00E
:104C9C00C020834313600B684038BB430B600B6828
:104CAC0003430B606B460733CE60D360012023496E
:104CBC00234B244A9A608A605C604C600A68024309
:104CCC000A601A682021024380201A60184A80006A
:104CDC0013681942FCD013680342F9D00122184919
:104CEC0016480B6893430B600368934303600B688F
:104CFC001A42FCD103681A42F9D103210D4A5368B8
:104D0C008B4353607D3193681942FCD103B0F0BDE5
:104D1C00BB43136013688030034313600B6840304F
:104D2C0083430B606B460733CB60D660BEE7C0464F
:104D3C000000024000380040FF9FFFFF1C000240B3
:104D4C00300002400C380040F0B5264DD6464F4698
:104D5C0046462B6881469C46FF23884680200121CD
:104D6C00C0B59A46204C214B524622709A6811428B
:104D7C00FCD09A681042FCD1664627782A68FFB2AC
:104D8C00921B642A27D8FF2FEED0FE2F23D1434647
:104D9C0049469AB20020FFF751FFFF230122134925
:104DAC0023708B681A42FCD0802210498B681A42FF
:104DBC00FCD10D4B0D491A78FF221A70FE3A8B6804
:104DCC001A42FCD0802209498B681A42FCD1064B4E
:104DDC0001201B7800E00020E0BCBA46B146A84692
:104DEC00F0BDC046700300200C3800400038004075
:104DFC00F0B5D64646464F4643B282468846C0B5C5
:104E0C00002B00DA86E04022504B51499A618022F7
:104E1C00D2039A61FF224F4B1A70FE3A8B681A42EA
:104E2C00FCD080224A498B681A42FCD1494E0120A1
:104E3C003378FF238021484F1D1C3C68444B357050
:104E4C009A681042FCD09A681142FCD13278D2B2E6
:104E5C0091463A68121B642A5AD84A46FF2AEED168
:104E6C00534601223A4933708B681A42FCD0802297
:104E7C0037498B681A42FCD1182601208021354F06
:104E8C003B78334B4246F240D2B23A709A681042A9
:104E9C00FCD09A681142FCD1083E3A7832000832B4
:104EAC00F0D15346402B40D0483B5A1E93418522AB
:104EBC005B4293438733274A2549137001228B6841
:104ECC001A42FCD0802222498B681A42FCD1214B19
:104EDC001A7852464C2A2AD0FF230A250124802115
:104EEC001F1C1C4E1A4B37709A681442FCD09A68DF
:104EFC001142FCD13278D0B252B2002A03DA013D11
:104F0C00EDB2002DEFD1E0BCBA46B146A846F0BDDB
:104F1C00FF20F8E700217720FFF76AFF0128F2D87D
:104F2C0052467F231A4092466DE79523C3E7B3326E
:104F3C0007491A70FE3A8B681A42FCD08022044949
:104F4C008B681A42FCD1034B1B78C5E70004005058
:104F5C00003800400C38004070030020F0B54021B0
:104F6C004646D6464F4638248748884BC0B58161A3
:104F7C001A68874D8A431A601A6882B0A2431A6075
:104F8C001A6822431A601A682E3C0A431A6080225F
:104F9C00D2038261FF220120161C40312E709A68C8
:104FAC001042FCD09A681142FCD1013CE4B22A7840
:104FBC00002CF3D100214020FFF71AFF0500012837
:104FCC0014D04022734B1C706F4B9A61724C237837
:104FDC00DB0737D501222378134323702078C0B226
:104FEC0002B0E0BCBA46B146A846F0BDD521482077
:104FFC004900FFF7FDFE012856D1654B01AC9846E0
:10500C00FF23A24626009946012780225F4902AD64
:10501C004346484618708B681F42FCD010008B68C2
:10502C0018401A42FAD143461B7833700136B54208
:10503C00EED1A378012B6BD04022564B1870524BFB
:10504C009A61C3E78022504BD2039A61FF22504BE6
:10505C004E491A70FE3A8B681A42FCD080224B499A
:10506C008B681A42FCD14A4D4C4E2B783368012088
:10507C009C46FF2380219946444B4A462A709A68E5
:10508C001042FCD09A681142FCD167462A78D2B201
:10509C0090463268D21B642A02D84246FF2AECD1D1
:1050AC004022394B9A6195E70021E920FFF7A0FED9
:1050BC004126012801D80225A83600213000FFF72F
:1050CC0097FE041EF9D1802150208900FFF790FE35
:1050DC00304B002817D140221D702B4B9A610122B6
:1050EC00402138202C4C237893432370274B1A688B
:1050FC008A431A601A6882431A601A681A601A681E
:10510C000A431A606AE740221C701F4B9A615DE7E4
:10511C00E378AA2B90D18021E920C905FFF768FE1E
:10512C00071EF8D100217A20FFF762FE00281ED15D
:10513C00FF2380219C46164F144B013062463A7077
:10514C009A681042FCD09A681142FCD156463A78C3
:10515C003270721C9246AA42F0D14023227813423C
:10516C000BD104210B4A1170074A9361B7E7402217
:10517C00084B1F70044B9A6128E70C21054A1170EB
:10518C00014A9361ABE7C046000400500038004070
:10519C000C380040D4030020A10000207003002034
:1051AC00014B1878C0B27047A1000020F8B54E46EC
:1051BC004546DE465746894698461100E0B5002B19
:1051CC002DD0424B1B78DB0700D57CE0404B1B7885
:1051DC001B0700D451024346012B11D05220FFF77C
:1051EC0007FE8246031E1DD001239A464022394BEE
:1051FC009A615046F0BCBB46B246A946A046F8BDE3
:10520C005120FFF7F5FD0028EED18021484689009A
:10521C00FFF79AFD43425841C3B29A46E6E704238E
:10522C009A46E6E7FF339B462B4E2C4C1F1C012164
:10523C00802230682A4D2F70A3681942FCD0A368D5
:10524C001A42FCD12B78DBB29C4633681B1A642BB8
:10525C0032D86346FF2BEED0FE2B2DD1802249464F
:10526C0092000020FFF7EAFC5B4601222B70A3683A
:10527C001A42FCD08022A3681A42FCD1184B1A782F
:10528C005A461A700122A3681A42FCD08022A368E5
:10529C001A42FCD1124B1B7880239B009C460123A5
:1052AC005B42E1449C46E0444346002BBFD10021C5
:1052BC004C20FFF79DFD99E7012300214C209A46D5
:1052CC00FFF796FD92E703239A4692E7A100002090
:1052DC00D40300200004005070030020003800406C
:1052EC000C380040016070470381009B8180C280B4
:1052FC0043817047C16070470161704710B5352418
:10530C000155362142543722835410BD3423C154E5
:10531C007047C0462823C05C7047C0464069704740
:10532C0080697047F0B557464E464546DE46E0B5B7
:10533C0007003B693A6800891D785C78BB889188C6
:10534C001B187E89C9B08B4200DD2EE1FB88D28808
:10535C009B19934200DD28E12900FAF75FFF0E90BC
:10536C00022800DC21E121003000FAF757FF0490FD
:10537C00002800D119E1FB680E9A9B4613006B4381
:10538C000B93030006006343DA469B465E43013AE7
:10539C000C92C04679691CA8FFF7DAF80A90C0464F
:1053AC00002800D040E32923FB5C002B07D17B6A4B
:1053BC00FA699B00D258FA623A6AD3583B630123CC
:1053CC0006241D000DE086220CAB9B181B78002BCD
:1053DC000FD00E3A0CAB9B181B7823405A4253410A
:1053EC00ED18C04628A91CA8FFF70CF9C0460028E8
:1053FC00E9D03B69290030005C78FAF70FFFA94629
:10540C000D94844200DA0D90049B994505DD0E9BAA
:10541C00033B5A1E9341DBB20A93D046CA460C9BFF
:10542C000A9A0F969B1A0993C04600211CA8FFF7F5
:10543C00E9F8C046002800D0F6E20CAB1875002342
:10544C00002499463A6B0593FB6A9B1AA34204DC31
:10545C00049A94466344A3422ADC0134A24500DC3E
:10546C00BCE055464A460CAB1A75C04628A91CA888
:10547C00FFF7C8F8C046002800D0AEE086220CAB7F
:10548C009B181B78002B00D1A7E00E3A0CAB9B1895
:10549C001B78723A1A4200D09CE0FB6A3A6BAA461F
:1054AC009B1AA342D9DC049A94466344A342D4DDEC
:1054BC0043465B680793002C00D067E1B1490C9A16
:1054CC0011A800F06DFB4346FD6A1B693E2606934E
:1054DC00A54200D19BE16B469B8A386808939C4699
:1054EC004B46FA88B9880393079B62440293069B48
:1054FC0092B201933B6900933300FCF717FF11A89C
:10550C00FAF7FAFD00281FD0002611AD08E0403351
:10551C002B7011A8FAF7F0FD01360135B04213D902
:10552C002B781A00803AD2B22F2AF0D91A002032E6
:10553C00D2B20F2A43D810332B7011A8FAF7DCFD26
:10554C0001360135B042EBD811A800F095FB099B50
:10555C001D00984200DBE7E11A1A11AB9C46202192
:10556C00604400F0D7FF14220CAB9B184A465A55E6
:10557C004D4608993B698C46B8881978FA88091801
:10558C0038680395069D62440295079D92B200937C
:10559C0089B211AB0195FDF761F8059A3B69944608
:1055AC005B789C446346059357E728230122FA5401
:1055BC0049B0F0BCBB46B246A946A046F0BDF02BA4
:1055CC0000D1D8E0F12BA7D1393B2B7011A8FAF7F9
:1055DC0093FDA1E7A54200DD44E7AA46059B9B4548
:1055EC0000DD20E13423FB5C012BE1D02423424677
:1055FC00D35C002B00D13CE10A9B002B39D03A6BD9
:10560C00FB6A0D999B1A5A46501A58435346049AF2
:10561C00991AFAF703FE6B469B8D0400059386B22C
:10562C00002800D0DAE1059BFA889C46B988B218AC
:10563C0010B26144844638690D9D007889B2ABB2D2
:10564C0007934B1E091A09B206914146C96938687D
:10565C000191A9B2013989464A4412B200920699C5
:10566C0062461BB2FCF736FEAC4664445C4500DA7D
:10567C0099E15346362501245E1E00F065FA22009E
:10568C007B5D01009A401140104203D0FA6AB2428D
:10569C0000DA19E135232200FB5C9A40130002006A
:1056AC001A409446184203D0FA6A002A00DD27E11A
:1056BC0037232200FB5C9A40030013401042DCD0DD
:1056CC0062468C4611006246002A00D0A0E10029F7
:1056DC0000D09FE1C2460F9EFA6A002A00D1A7E1D2
:1056EC0038AB1B7ADB0600D4D6E17D69280000F0CC
:1056FC00C3FA0CAA9446C62363440400180000F0B5
:10570C00BBFA21180231280000F0AAFE1E4978616C
:10571C0000F072FA0CAA9446C62363441900786907
:10572C0000F06AFA7B6AFA6AF8699B001A507B6A85
:10573C00396B3A6A9B0099507B6A5A1C02337A6225
:10574C00990000F08DFE796AF8610131386A8900A0
:10575C0000F086FE00237A6AF96992003862535091
:10576C007A6A920013502922BB54C0461CA8FEF73B
:10577C002FFFC0460DE6483B2B7011A8FAF7BCFC76
:10578C00CAE6C04630670008747A00080CAA944632
:10579C0086236344180000F06FFA099B984200D8E6
:1057AC0089E078220E9BDD1E0A9BED1A0CAB9B1830
:1057BC001B78DB0600D4B9E00CA98C468623634425
:1057CC00190011A82A0000F0EBF9BE4911A800F04D
:1057DC0013FA78220CAB9B181B786626DB0603D5D4
:1057EC0043461B68223E07930123FD6A234008931E
:1057FC00A54232D043461B690693089B002B00D16F
:10580C0069E643465B690693A54200D063E64346CE
:10581C009B68424607932423D35C002B00D15AE6A5
:10582C009369069357E60B9A454694463A690A984B
:10583C001278B98842434B1E6344FC889B1A059A24
:10584C00ED68A218013C5C44A4B238689BB292B2D9
:10585C0001950094FCF714FBC4E6402228A938A853
:10586C0000F0ACFE43461B690693089B002BC8D185
:10587C00CDE70B983A69844656780A981278B9881D
:10588C0042433C6B4B1E63449B1A22001BB299464D
:10589C004346724301347443FD889B69AA18013D49
:1058AC00641924B2386812B2019309B24B460094C1
:1058BC00FCF7E0FCA0E60CAA94468623634419008E
:1058CC0011A800F0AFF984E735232100FB5C994067
:1058DC003723FB5C01409C4003002340386B049C45
:1058EC000130A04202DA504500DA38630132FA6224
:1058FC00002910D1002B00D196E5C2460F9EECE694
:10590C0063468C4619003723FB5C9C4003006046C1
:10591C0023400028E2D1396B013A481E4942C9178D
:10592C0008403863FA62E5E705001CE60CAA9446C9
:10593C0086236344180000F09FF900E0180000284B
:10594C0000D139E7431E28AAD218927D2E2AF5D110
:10595C00012800D130E70CAA9446862363441E1814
:10596C00300000F089F90CA98C4686236344190099
:10597C002A1A11A800F014F911A800F07DF90500FD
:10598C00300000F079F92A18099D4E49AA1A11A87D
:10599C0000F016F911A800F06FF931002A1A11A8BD
:1059AC0000F00EF915E7059B45469C46FC88B98826
:1059BC003869079A007861441219013C2D6A89B242
:1059CC005C444B1EB218091A24B238681BB212B2CE
:1059DC0009B201950094FCF77DFC4AE69C4606252D
:1059EC00785FB988454661448446FA883869013A3B
:1059FC0000782D6A89B2B2184B1E12B2091A1BB26A
:105A0C00386809B2009201956246FCF763FC0AE61D
:105A1C00FA6A63E7396BFA6A481E4942C9170840AB
:105A2C00013A3863FA6265E728230222FA54BFE58B
:105A3C007B6A002B0CD1FB691A603B6A1A60292324
:105A4C000022FA54C0461CA8FEF7C2FDC046A0E4D2
:105A5C00786900F011F9411E09D4002201E02F2BC6
:105A6C0005D07B6958185B5C02700139F7D20231A2
:105A7C00786900F0F5FC796A78618900F86900F0C2
:105A8C00EFFC796AF8618900386A00F0E9FC7B6AFE
:105A9C003862013B7B62D2E7B869002801D000F084
:105AAC0023FC0CAB9C46C620604400F0C5F8802358
:105ABC005B00B8613B85C0461CA8FEF789FDC0465B
:105ACC0076E5C0463067000810B56021012000F073
